{
  "contractName": "AirHockey",
  "abi": [
    {
      "constant": false,
      "inputs": [
        {
          "internalType": "address",
          "name": "_playerAddress",
          "type": "address"
        },
        {
          "internalType": "uint256",
          "name": "bettedAmt",
          "type": "uint256"
        }
      ],
      "name": "createPlayer",
      "outputs": [],
      "payable": false,
      "stateMutability": "nonpayable",
      "type": "function"
    },
    {
      "constant": true,
      "inputs": [],
      "name": "totalBet",
      "outputs": [
        {
          "internalType": "uint256",
          "name": "",
          "type": "uint256"
        }
      ],
      "payable": false,
      "stateMutability": "view",
      "type": "function"
    },
    {
      "constant": false,
      "inputs": [],
      "name": "getTotalBet",
      "outputs": [],
      "payable": false,
      "stateMutability": "nonpayable",
      "type": "function"
    }
  ],
  "bytecode": "0x608060405234801561001057600080fd5b506101f8806100206000396000f3fe608060405234801561001057600080fd5b50600436106100415760003560e01c806336edbe1714610046578063bfe38df514610094578063fe5e18531461009e575b600080fd5b6100926004803603604081101561005c57600080fd5b81019080803573ffffffffffffffffffffffffffffffffffffffff169060200190929190803590602001909291905050506100bc565b005b61009c61018b565b005b6100a661018d565b6040518082815260200191505060405180910390f35b6100c4610193565b60405180604001604052808473ffffffffffffffffffffffffffffffffffffffff1681526020018381525090506002600080549050111561010457600080fd5b6000819080600181540180825580915050906001820390600052602060002090600202016000909192909190915060008201518160000160006101000a81548173ffffffffffffffffffffffffffffffffffffffff021916908373ffffffffffffffffffffffffffffffffffffffff16021790555060208201518160010155505050505050565b565b60015481565b6040518060400160405280600073ffffffffffffffffffffffffffffffffffffffff16815260200160008152509056fea265627a7a72315820ee78b8523e90bb1f213790026c36dcb7cd48dbfdbf2c5b6e1e209a7225fe5f3f64736f6c63430005100032",
  "source": "// SPDX-License-Identifier: MIT\r\npragma solidity >=0.4.0 <0.9.0;\r\n\r\nimport \"./modifiers.sol\";\r\nimport \"./HockeyPlayers.sol\";\r\n\r\n// The game logic will be implemented in this file\r\ncontract AirHockey is HockeyPlayers {\r\n    uint public totalBet;\r\n\r\n    // function to get total betted amount and set it to totalBet\r\n    function getTotalBet () public {\r\n\r\n    }\r\n\r\n}",
  "sourcePath": "C:/Users/ASUS/Desktop/AirHockey/server/contracts/AirHockey.sol",
  "compiler": {
    "name": "solc",
    "version": "0.5.16+commit.9c3226ce.Emscripten.clang"
  },
  "schemaVersion": "3.3.4",
  "updatedAt": "2021-03-09T13:45:53.339Z",
  "devdoc": {
    "methods": {}
  },
  "userdoc": {
    "methods": {}
  }
}