{
  "contractName": "HockeyPlayers",
  "abi": [
    {
      "constant": false,
      "inputs": [
        {
          "internalType": "address",
          "name": "_playerAddress",
          "type": "address"
        },
        {
          "internalType": "uint256",
          "name": "bettedAmt",
          "type": "uint256"
        }
      ],
      "name": "createPlayer",
      "outputs": [],
      "payable": false,
      "stateMutability": "nonpayable",
      "type": "function"
    }
  ],
  "bytecode": "0x608060405234801561001057600080fd5b506101b2806100206000396000f3fe608060405234801561001057600080fd5b506004361061002b5760003560e01c806336edbe1714610030575b600080fd5b61007c6004803603604081101561004657600080fd5b81019080803573ffffffffffffffffffffffffffffffffffffffff1690602001909291908035906020019092919050505061007e565b005b61008661014d565b60405180604001604052808473ffffffffffffffffffffffffffffffffffffffff168152602001838152509050600260008054905011156100c657600080fd5b6000819080600181540180825580915050906001820390600052602060002090600202016000909192909190915060008201518160000160006101000a81548173ffffffffffffffffffffffffffffffffffffffff021916908373ffffffffffffffffffffffffffffffffffffffff16021790555060208201518160010155505050505050565b6040518060400160405280600073ffffffffffffffffffffffffffffffffffffffff16815260200160008152509056fea265627a7a723158209dfb97525790d4127ba88426d5c1ae3aeb56ef2220d2848cd5b0427144743d6564736f6c63430005100032",
  "source": "// SPDX-License-Identifier: MIT\r\npragma solidity >=0.4.0 <0.9.0;\r\n\r\nimport \"./modifiers.sol\";\r\n\r\n// Player generation and modification contracts will be handled here\r\ncontract HockeyPlayers is HasModifiers{\r\n    struct Player {\r\n        address playerAddress;  // player's unique address/wallet id\r\n        uint bettedAmt;  // amount that the player is betting\r\n    } \r\n\r\n    Player[] playersInGame;\r\n\r\n    // creates a player and adds it to the playersInGame array\r\n    function createPlayer (address _playerAddress, uint bettedAmt) public  hasEther() {\r\n        Player memory player;\r\n        player=Player(_playerAddress,bettedAmt);\r\n        require(playersInGame.length<=2);\r\n        playersInGame.push(player);\r\n\r\n    }\r\n}",
  "sourcePath": "C:/Users/ASUS/Desktop/AirHockey/server/contracts/HockeyPlayers.sol",
  "compiler": {
    "name": "solc",
    "version": "0.5.16+commit.9c3226ce.Emscripten.clang"
  },
  "schemaVersion": "3.3.4",
  "updatedAt": "2021-03-09T13:46:39.765Z",
  "devdoc": {
    "methods": {}
  },
  "userdoc": {
    "methods": {}
  }
}