{
  "contractName": "GamePlayers",
  "abi": [
    {
      "constant": true,
      "inputs": [
        {
          "internalType": "uint256",
          "name": "",
          "type": "uint256"
        }
      ],
      "name": "playersInGame",
      "outputs": [
        {
          "internalType": "address",
          "name": "playerAddress",
          "type": "address"
        },
        {
          "internalType": "uint256",
          "name": "bettedAmt",
          "type": "uint256"
        }
      ],
      "payable": false,
      "stateMutability": "view",
      "type": "function"
    },
    {
      "constant": false,
      "inputs": [
        {
          "internalType": "uint256",
          "name": "_amount",
          "type": "uint256"
        }
      ],
      "name": "deductBet",
      "outputs": [],
      "payable": true,
      "stateMutability": "payable",
      "type": "function"
    },
    {
      "constant": false,
      "inputs": [
        {
          "internalType": "address",
          "name": "_playerAddress",
          "type": "address"
        },
        {
          "internalType": "uint256",
          "name": "_bettedAmt",
          "type": "uint256"
        }
      ],
      "name": "createPlayer",
      "outputs": [],
      "payable": false,
      "stateMutability": "nonpayable",
      "type": "function"
    }
  ],
  "bytecode": "0x608060405234801561001057600080fd5b50610358806100206000396000f3fe6080604052600436106100345760003560e01c806336edbe17146100395780639109c83314610094578063f9593e14146100c2575b600080fd5b34801561004557600080fd5b506100926004803603604081101561005c57600080fd5b81019080803573ffffffffffffffffffffffffffffffffffffffff16906020019092919080359060200190929190505050610144565b005b6100c0600480360360208110156100aa57600080fd5b8101908080359060200190929190505050610246565b005b3480156100ce57600080fd5b506100fb600480360360208110156100e557600080fd5b81019080803590602001909291905050506102a2565b604051808373ffffffffffffffffffffffffffffffffffffffff1673ffffffffffffffffffffffffffffffffffffffff1681526020018281526020019250505060405180910390f35b80803373ffffffffffffffffffffffffffffffffffffffff1631101561016957600080fd5b6002600080549050111561017c57600080fd5b6101846102f3565b60405180604001604052808573ffffffffffffffffffffffffffffffffffffffff1681526020018481525090506101be8160200151610246565b6000819080600181540180825580915050906001820390600052602060002090600202016000909192909190915060008201518160000160006101000a81548173ffffffffffffffffffffffffffffffffffffffff021916908373ffffffffffffffffffffffffffffffffffffffff1602179055506020820151816001015550505050505050565b34811461025257600080fd5b60003090508073ffffffffffffffffffffffffffffffffffffffff166108fc839081150290604051600060405180830381858888f1935050505015801561029d573d6000803e3d6000fd5b505050565b600081815481106102af57fe5b90600052602060002090600202016000915090508060000160009054906101000a900473ffffffffffffffffffffffffffffffffffffffff16908060010154905082565b6040518060400160405280600073ffffffffffffffffffffffffffffffffffffffff16815260200160008152509056fea265627a7a7231582008bce36f81726e478738d138cf7a87d1ea792a3efb29a23e4c451075ad76d5ed64736f6c63430005100032",
  "source": "// SPDX-License-Identifier: MIT\r\npragma solidity >=0.5.0 <0.9.0;\r\n\r\nimport \"./Modifiers.sol\";\r\n\r\n// Player generation and modification contracts will be handled here\r\ncontract GamePlayers is HasModifiers{\r\n    struct Player {\r\n        address playerAddress;  // player's unique address/wallet id\r\n        uint bettedAmt;  // amount that the player is betting\r\n    } \r\n\r\n    Player[] public playersInGame;\r\n\r\n    // function to deduct betted amount at the time of game signup\r\n    function deductBet (uint _amount) public payable {\r\n        require(_amount == msg.value);\r\n        address payable thisContract = address(uint160(address(this)));\r\n        thisContract.transfer(_amount);\r\n    }\r\n\r\n    // creates a player and adds it to the playersInGame array\r\n    function createPlayer (address _playerAddress, uint _bettedAmt) external hasEther(_bettedAmt) {\r\n        require(playersInGame.length <= 2);\r\n        Player memory player = Player(_playerAddress, _bettedAmt);\r\n        deductBet(player.bettedAmt);\r\n        playersInGame.push(player);\r\n    }\r\n\r\n}",
  "sourcePath": "C:/Users/ASUS/Desktop/AirHockey/server/contracts/GamePlayers.sol",
  "compiler": {
    "name": "solc",
    "version": "0.5.16+commit.9c3226ce.Emscripten.clang"
  },
  "schemaVersion": "3.3.4",
  "updatedAt": "2021-03-11T04:24:38.487Z",
  "devdoc": {
    "methods": {}
  },
  "userdoc": {
    "methods": {}
  }
}