{
  "contractName": "TicTacToe",
  "abi": [
    {
      "constant": false,
      "inputs": [
        {
          "internalType": "string",
          "name": "roomID",
          "type": "string"
        }
      ],
      "name": "setid",
      "outputs": [],
      "payable": false,
      "stateMutability": "nonpayable",
      "type": "function"
    },
    {
      "constant": true,
      "inputs": [
        {
          "internalType": "string",
          "name": "roomID",
          "type": "string"
        }
      ],
      "name": "getid",
      "outputs": [
        {
          "internalType": "uint256",
          "name": "",
          "type": "uint256"
        }
      ],
      "payable": false,
      "stateMutability": "view",
      "type": "function"
    },
    {
      "constant": false,
      "inputs": [
        {
          "internalType": "uint256",
          "name": "ID",
          "type": "uint256"
        }
      ],
      "name": "createPlayer",
      "outputs": [],
      "payable": true,
      "stateMutability": "payable",
      "type": "function"
    },
    {
      "constant": true,
      "inputs": [
        {
          "internalType": "uint256",
          "name": "ID",
          "type": "uint256"
        }
      ],
      "name": "TotalBet",
      "outputs": [
        {
          "internalType": "uint256",
          "name": "",
          "type": "uint256"
        }
      ],
      "payable": false,
      "stateMutability": "view",
      "type": "function"
    },
    {
      "constant": false,
      "inputs": [
        {
          "internalType": "uint256",
          "name": "ID",
          "type": "uint256"
        },
        {
          "internalType": "uint256",
          "name": "index",
          "type": "uint256"
        }
      ],
      "name": "Winner",
      "outputs": [],
      "payable": false,
      "stateMutability": "nonpayable",
      "type": "function"
    },
    {
      "constant": true,
      "inputs": [
        {
          "internalType": "address",
          "name": "player",
          "type": "address"
        }
      ],
      "name": "getBet",
      "outputs": [
        {
          "internalType": "uint256",
          "name": "",
          "type": "uint256"
        }
      ],
      "payable": false,
      "stateMutability": "view",
      "type": "function"
    },
    {
      "constant": false,
      "inputs": [
        {
          "internalType": "uint256",
          "name": "ID",
          "type": "uint256"
        }
      ],
      "name": "Draw",
      "outputs": [],
      "payable": false,
      "stateMutability": "nonpayable",
      "type": "function"
    }
  ],
  "bytecode": "0x608060405261138860005534801561001657600080fd5b50610d98806100266000396000f3fe6080604052600436106100705760003560e01c8063c24d443a1161004e578063c24d443a146101d1578063c860165414610299578063dbfb6b54146102e8578063f7566b491461031657610070565b80632ec31526146100755780633fd10e0b146100ba5780634c93703b146100f5575b600080fd5b34801561008157600080fd5b506100b86004803603604081101561009857600080fd5b81019080803590602001909291908035906020019092919050505061037b565b005b3480156100c657600080fd5b506100f3600480360360208110156100dd57600080fd5b8101908080359060200190929190505050610461565b005b34801561010157600080fd5b506101bb6004803603602081101561011857600080fd5b810190808035906020019064010000000081111561013557600080fd5b82018360208201111561014757600080fd5b8035906020019184600183028401116401000000008311171561016957600080fd5b91908080601f016020809104026020016040519081016040528093929190818152602001838380828437600081840152601f19601f82011690508083019250505050505050919291929050505061075a565b6040518082815260200191505060405180910390f35b3480156101dd57600080fd5b50610297600480360360208110156101f457600080fd5b810190808035906020019064010000000081111561021157600080fd5b82018360208201111561022357600080fd5b8035906020019184600183028401116401000000008311171561024557600080fd5b91908080601f016020809104026020016040519081016040528093929190818152602001838380828437600081840152601f19601f8201169050808301925050505050505091929192905050506107cd565b005b3480156102a557600080fd5b506102d2600480360360208110156102bc57600080fd5b81019080803590602001909291905050506108e9565b6040518082815260200191505060405180910390f35b610314600480360360208110156102fe57600080fd5b8101908080359060200190929190505050610aea565b005b34801561032257600080fd5b506103656004803603602081101561033957600080fd5b81019080803573ffffffffffffffffffffffffffffffffffffffff169060200190929190505050610c2a565b6040518082815260200191505060405180910390f35b6000600360008481526020019081526020016000209050600060018260405180828054600181600116156101000203166002900480156103f25780601f106103d05761010080835404028352918201916103f2565b820191906000526020600020905b8154815290600101906020018083116103de575b50509150509081526020016040518091039020838154811061041057fe5b9060005260206000200160009054906101000a900473ffffffffffffffffffffffffffffffffffffffff1690506000805460020261044d866108e9565b03905061045a8282610c73565b5050505050565b6000600360008381526020019081526020016000209050600060018260405180828054600181600116156101000203166002900480156104d85780601f106104b65761010080835404028352918201916104d8565b820191906000526020600020905b8154815290600101906020018083116104c4575b505091505090815260200160405180910390206000815481106104f757fe5b9060005260206000200160009054906101000a900473ffffffffffffffffffffffffffffffffffffffff169050600080546105d860018560405180828054600181600116156101000203166002900480156105895780601f10610567576101008083540402835291820191610589565b820191906000526020600020905b815481529060010190602001808311610575575b505091505090815260200160405180910390206000815481106105a857fe5b9060005260206000200160009054906101000a900473ffffffffffffffffffffffffffffffffffffffff16610c2a565b0390506000600184604051808280546001816001161561010002031660029004801561063b5780601f1061061957610100808354040283529182019161063b565b820191906000526020600020905b815481529060010190602001808311610627575b5050915050908152602001604051809103902060018154811061065a57fe5b9060005260206000200160009054906101000a900473ffffffffffffffffffffffffffffffffffffffff1690506000805461073b60018760405180828054600181600116156101000203166002900480156106ec5780601f106106ca5761010080835404028352918201916106ec565b820191906000526020600020905b8154815290600101906020018083116106d8575b5050915050908152602001604051809103902060018154811061070b57fe5b9060005260206000200160009054906101000a900473ffffffffffffffffffffffffffffffffffffffff16610c2a565b0390506107488484610c73565b6107528282610c73565b505050505050565b60006004826040518082805190602001908083835b60208310610792578051825260208201915060208101905060208303925061076f565b6001836020036101000a0380198251168184511680821785525050505050509050019150509081526020016040518091039020549050919050565b60006004826040518082805190602001908083835b6020831061080557805182526020820191506020810190506020830392506107e2565b6001836020036101000a03801982511681845116808217855250505050505090500191505090815260200160405180910390205414156108e657600160055401600581905550806003600060055481526020019081526020016000209080519060200190610874929190610cbe565b506005546004826040518082805190602001908083835b602083106108ae578051825260208201915060208101905060208303925061088b565b6001836020036101000a0380198251168184511680821785525050505050509050019150509081526020016040518091039020819055505b50565b60008060036000848152602001908152602001600020905060006002600060018460405180828054600181600116156101000203166002900480156109655780601f10610943576101008083540402835291820191610965565b820191906000526020600020905b815481529060010190602001808311610951575b5050915050908152602001604051809103902060008154811061098457fe5b9060005260206000200160009054906101000a900473ffffffffffffffffffffffffffffffffffffffff1673ffffffffffffffffffffffffffffffffffffffff1673ffffffffffffffffffffffffffffffffffffffff1681526020019081526020016000205490506000600260006001856040518082805460018160011615610100020316600290048015610a505780601f10610a2e576101008083540402835291820191610a50565b820191906000526020600020905b815481529060010190602001808311610a3c575b50509150509081526020016040518091039020600181548110610a6f57fe5b9060005260206000200160009054906101000a900473ffffffffffffffffffffffffffffffffffffffff1673ffffffffffffffffffffffffffffffffffffffff1673ffffffffffffffffffffffffffffffffffffffff1681526020019081526020016000205490506000818301905080945050505050919050565b6000600360008381526020019081526020016000209050600033905060003490506001836040518082805460018160011615610100020316600290048015610b695780601f10610b47576101008083540402835291820191610b69565b820191906000526020600020905b815481529060010190602001808311610b55575b505091505090815260200160405180910390208290806001815401808255809150509060018203906000526020600020016000909192909190916101000a81548173ffffffffffffffffffffffffffffffffffffffff021916908373ffffffffffffffffffffffffffffffffffffffff1602179055505080600260008473ffffffffffffffffffffffffffffffffffffffff1673ffffffffffffffffffffffffffffffffffffffff1681526020019081526020016000208190555050505050565b6000600260008373ffffffffffffffffffffffffffffffffffffffff1673ffffffffffffffffffffffffffffffffffffffff168152602001908152602001600020549050919050565b8173ffffffffffffffffffffffffffffffffffffffff166108fc829081150290604051600060405180830381858888f19350505050158015610cb9573d6000803e3d6000fd5b505050565b828054600181600116156101000203166002900490600052602060002090601f016020900481019282601f10610cff57805160ff1916838001178555610d2d565b82800160010185558215610d2d579182015b82811115610d2c578251825591602001919060010190610d11565b5b509050610d3a9190610d3e565b5090565b610d6091905b80821115610d5c576000816000905550600101610d44565b5090565b9056fea265627a7a7231582022601f5f8f72347d8128903a20d76ab956dad50f8e8efe0aab9a50c9b15b615864736f6c63430005100032",
  "source": "// SPDX-License-Identifier: MIT\r\npragma solidity >0.5.11;\r\n\r\n\r\n// The game logic will be implemented in this file\r\n\r\ncontract TicTacToe{\r\n\r\n    // Storing the commission as 5000 Wei\r\n\r\n    uint private commission=5000;\r\n\r\n    // Created a Mapping Game which maps from string to address array\r\n\r\n    mapping(string=>address[]) private Game;\r\n    \r\n    // Created Mapping BettAmt which maps from adddress to uint\r\n    // It maps from address of player to bet amount\r\n\r\n    mapping(address=>uint) private BettAmt;\r\n    \r\n    // Created Mapping to store the unique id vs room id string\r\n    \r\n    mapping(uint=>string) private RoomIDMap;\r\n    \r\n    // Created Mapping to store the room id string vs unique id\r\n    \r\n    mapping(string=>uint) private IDRoomMap;\r\n    \r\n    // Set a Unique ID\r\n    \r\n    uint private uniqueid;\r\n\r\n    // event SetID(\r\n    //     bool status\r\n    // );\r\n    \r\n    // Set the mappings with room id string vs unique id and unique id vs room id string\r\n    \r\n    function setid(string memory roomID) public{\r\n        // If the room ID already exists in the mapping then it will not create a new one \r\n        if(IDRoomMap[roomID]==0){\r\n            uniqueid=uniqueid+1;\r\n            RoomIDMap[uniqueid]=roomID;\r\n            IDRoomMap[roomID]=uniqueid;\r\n        }\r\n        // emit SetID(true);\r\n    }\r\n    \r\n    // Get Function which returns the unique id for given string id\r\n    \r\n    function getid(string memory roomID) public view returns(uint){\r\n        return IDRoomMap[roomID];\r\n    }\r\n\r\n    // event SuccessDeposit(\r\n    //     address sender,\r\n    //     uint betAmount,\r\n    //     string roomId\r\n    // );\r\n    \r\n    // Function which accept a payment from the user and creates a user\r\n\r\n    function createPlayer(uint ID) external payable{\r\n        string storage RoomID=RoomIDMap[ID];\r\n        address sender = msg.sender;\r\n        uint betamount= msg.value;\r\n        Game[RoomID].push(sender);\r\n        BettAmt[sender]=betamount;\r\n        // emit SuccessDeposit(sender, betamount, RoomID);\r\n    }\r\n\r\n    // Function to send the bet amount to the winner\r\n\r\n    function sendBetAmt(address payable winner,uint bettedAmt) private{\r\n        winner.transfer(bettedAmt);\r\n    }\r\n    \r\n    // Calculate the Total Bet Amount\r\n\r\n    function TotalBet(uint ID) public view returns(uint) {\r\n        string storage RoomID=RoomIDMap[ID];\r\n        uint Bet0=BettAmt[Game[RoomID][0]];\r\n        uint Bet1=BettAmt[Game[RoomID][1]];\r\n        uint total=Bet0+Bet1;\r\n        return total;\r\n    }\r\n\r\n    // event GameWon(\r\n    //     address winner,\r\n    //     uint amount,\r\n    //     uint index\r\n\r\n    // );\r\n    // Function to take the winner index as input\r\n    // It calculates the Winner address and send total bet to the person\r\n\r\n    function Winner(uint ID,uint index) external{\r\n        string storage RoomID=RoomIDMap[ID];\r\n        address payable winner_address=address(uint160(Game[RoomID][index]));\r\n        uint totalBet=TotalBet(ID)-2*commission;\r\n        sendBetAmt(winner_address, totalBet);\r\n        // emit GameWon(winner_address, totalBet, index);\r\n\r\n\r\n    }\r\n\r\n    // Function for Get Bet Amount By Address\r\n\r\n    function getBet(address player) public view returns(uint){\r\n        return BettAmt[player];\r\n    }\r\n\r\n    // event GameDraw(\r\n    //     bool status\r\n    // );\r\n\r\n    // Function to send money to both players if it is draw game\r\n    \r\n    function Draw(uint ID) external{\r\n        string storage RoomID=RoomIDMap[ID];\r\n        address payable player0_address=address(uint160(Game[RoomID][0]));\r\n        uint bet0=getBet(Game[RoomID][0])-commission;\r\n        address payable player1_address=address(uint160(Game[RoomID][1]));\r\n        uint bet1=getBet(Game[RoomID][1])-commission;\r\n        sendBetAmt(player0_address, bet0);\r\n        sendBetAmt(player1_address, bet1);\r\n        // emit GameDraw(true);\r\n\r\n        \r\n    }\r\n\r\n}",
  "sourcePath": "C:/Users/ASUS/Desktop/AirHockey/client/src/smart_contracts/contracts/TicTacToe.sol",
  "compiler": {
    "name": "solc",
    "version": "0.5.16+commit.9c3226ce.Emscripten.clang"
  },
  "schemaVersion": "3.3.4",
  "updatedAt": "2021-03-19T06:46:14.326Z",
  "networkType": "ethereum",
  "devdoc": {
    "methods": {}
  },
  "userdoc": {
    "methods": {}
  }
}